:020000040800F2
:2000000038060020D90000086D0700086907000800000000000000000000000000000000AD
:200020000000000000000000000000007107000800000000000000006F070008D9070008DA
:20004000EB000008EB000008EB000008EB000008EB000008EB000008EB000008EB00000808
:20006000EB000008000000000000000000000000EB0000080000000000000000000000009A
:200080000000000000000000EB000008510A0008000000000000000000000000EB00000817
:2000A00000000000EB00000800000000CD0B0008EB00000800000000EB000008EB00000894
:2000C0000448854600F0E2FA00480047CD200008C046C046380600200448804704480047A9
:2000E000FEE7FEE7FEE7FEE7FEE7FEE7B5090008C100000830B50B4601460020202201240F
:2001000009E00D46D5409D4205D31D469540491B2546954040191546521E002DF1DC30BDF0
:2001200070B500242546002801DA01244042002901DA01254942FFF7DDFFAC4200D040429A
:20014000002C00D0494270BDD2B201E00270401C491EFBD270470022F6E710B513460A4660
:2001600004461946FFF7F0FF204610BDF0B507460846584087B0C00F049048000E46590057
:2001800040084908BC1A884105D2384631461E4617460B4602465800400810434DD0300DB4
:2001A000039040055900400D490D0590401A0290402873DA18030121000B09050843019003
:2001C00004980092002806D01146019A49420020904100910190029840210A1A0199009812
:2001E00000F0C0F905460C466B4607CB00F0DBF9C0197141039A0E0D0023D71756401A4628
:200200007A40164344D0049A002A2DD0029A012A039A15DC1205C01A914101263605001C5C
:200220007141D20F059ED2070093019202962A46234600F0D8F907B0F0BD38463146FAE71D
:200240001605234A0F46B218C01AB74101210905001C4F4100187F41114618187941E20F3F
:2002600010436D19644113E0E2076D0815436408C2071443039A01261205C01A9141360509
:20028000001C7141CE07400830434908C01851412A46234600F09AF9CDE7FFE70498012290
:2002A0004000C117121A00238B4104983146C417381AA141EEE730B40124E407634030BC91
:2002C00054E730B40124E407614030BC4EE700000000E0FFF0B51FB488B00B990998002435
:2002E00048400999C00F490049080991C0070B990090490049080B9109990898A646084327
:200300001CD00B990A98084318D0099801244000420D4800410D099824050003000B204352
:2003200009900B980003000B20430B9050181C494018002201901446104605E000200146A1
:200340000DB0F0BD032801DA034600E003239C46C11A0AAE0AE05F0008ADED5B4F00F75B82
:200360007D430027AA187C41491C5B1E6145F2DD410004AB5A522104120C0A43240C401C0C
:200380000828DFDB019802900099704601910090059B049A0799069800F025F9D0E7000096
:2003A0000DFCFFFFF0B50C465C4085B0E40FE40703944C000026640859009446490802464F
:2003C0000296224321D062460A431ED06200570D4A000E032303550D012402462C49240598
:2003E000781B1B0B360B401823432643614600901C46501AB44103D30098401C009002E0A8
:20040000921800985B41002803DA0020014605B0F0BD0020012109050746864611E064462C
:200420001D46141BB54106D36546521BB341744607430C43A646CD0740084908284392188E
:200440005B4105460D43EAD11046184313D06046194650407140084306D06046101AB341EB
:2004600006D20122002306E000220123DB0702E00122D2435310009874460105381C614185
:20048000029C039D0019694100F0A0F8BFE70000FD0300000EB5C217C10F5040CA07401808
:2004A0000021054B0293019200910A460B4600F09AF803B000BD0000330400000EB5054937
:2004C0000291002100910A460B46019100F08BF803B000BD330400004A0009030123090BFC
:2004E0001B051943094B10B5520D9A4201DA002010BD064B34339A4203DC9A1A00F042F813
:2005000010BD03495118884010BD0000FF030000CDFBFFFF10B5002904DB0124E40740429D
:200520008C412146002B04DB1C460123DB075242A3418B4200D1824210BD000010B5002980
:2005400004DB0124E40740428C412146002B04DB1C460123DB075242A341994200D190428E
:2005600010BD000010B5202A04DB0146203A9140002010BD914020239C1A0346E3401943CF
:20058000904010BD10B5202A04DB0846203AD040002110BD0B46D340D0402024A21A9140E5
:2005A0000843194610BD10B5202A06DBCB170846203A1041C1170B4306E00B461341D04038
:2005C0002024A21A91400843194610BD10B5002B08DA0024401C614192185B411A4301D16A
:2005E0004008400010BDF0B51FB482B005460C0003D0084600F094FB02E000F091FB203057
:200600000246009021462846FFF7ACFF049B059A04460F4618431143084314D01846104320
:200620001BD0009840210A1A18460599FFF7AAFF05460E46009A05990498FFF793FF0843D1
:2006400005D0012004E02046394607B0F0BD0020C11705430E432C43374300990E98630556
:20066000401A7905E40A00220C43FD0A0A3002D500200146E9E70105101969410C9C0D9DC9
:2006800000196941FFF7A2FFDFE70000064C0125064E05E0E36807CC2B430C3C9847103492
:2006A000B442F7D3FFF710FD583D0008783D000870B58C180578401C6B075B0F01D1037852
:2006C000401C2A1106D10278401C03E006780E70401C491C5B1EF9D12B0705D40023521E55
:2006E0000DD40B70491CFAE70378401CCB1A921C03E01D780D70491C5B1C521EF9D5A142FC
:20070000D8D3002070BD0000F1B582B00A2113480088FFF705FD0646FFF7BCFE04460D466A
:200720000298FFF7CBFE064622462B46FFF7D2FD032292070A4B01910090FFF733FE0446D0
:200740000D460022074B20462946FFF7C3FD04460D462046294603B0F0BD00005000002005
:20076000FFFF5F410000244000BFFEE77047704770470000164800681021084314490860A7
:2007800008460068C008C0000860084600680860104840680F49486008464068486000BF38
:2007A0000C480068022108400028F9D009484068800880000749486008464068486000BFCB
:2007C000044840680C2108400028F9D170470000002002400010024042480068002804D065
:2007E00040480068401E3F4908603F4800888021084000280CD03D480068401C3B4908608A
:20080000084600683A49884202D908463749086035480088FF210131084000280CD03548A4
:200820000068401C33490860084600683249884202D308462F49086030480078002805D124
:200840002F480088401C2E4908800CE02B480078012805D12B480088401C2A49088002E034
:200860000020264908702048008820210840002809D125480068401C23490860234800681E
:20088000401C22490860184800880121C9020840002804D01E480068401C1D4908601D48B3
:2008A0000088401C1B490880084600881A49884202DD0846174908801848007808280DDB60
:2008C00017480068401C16490860084600681549884206D308461249086002E0002010490B
:2008E0000860704764000020C40000206C000020407E05006800002040771B00BD000020EB
:20090000C2000020BE00002070000020740000201400002094000020B80B00000000002028
:20092000B000002000DD6D00002000211A4A528880231A40002A01D0184900E01849194A21
:2009400052680C231A401046002806D0042807D0082809D00C280DD107E0134A11600DE040
:20096000124A114B1A6009E000BF7D2252030E4B1A6003E0094A0C4B1A6000BF00BF094AFE
:200980005268F0231A401209094B985C064A1268C240054B1A60704700F8FF1F00366E01C5
:2009A00000093D0000100240D401002000127A00D801002010B52048406A0321C906084013
:2009C0000121C90688420BD100BFBFF34F8F1B481B49C860BFF34F8F00BF00BF00BFFDE791
:2009E0001548406A0321C9060840884206D11248406A0121090608430F4948620E480068D4
:200A0000012108430C490860084640680D49084009494860084600680B4908400649086015
:200A20000846006B094908400349086300208860FFF7A0FE10BD0000001002400400FA05EE
:200A400000ED00E00CF8FF00FFFFF2FBECFF00FE70B500242848C06802210840002806D0A8
:200A6000254800690840002801D0012000E00020002840D00220C0431F4908611F48008821
:200A80007D21C900884202DC1C48058801E07D25ED002C461A480088401E444319480168DB
:200AA0002046FFF727FB044617490C8017480078012811D100201549087011490988491E58
:200AC0000A22514308466421FFF72AFB00191049088001F099FF0AE001200C4908700848BD
:200AE0000088401E001B0A49088001F093FF084800880149486370BD0020004058000020C5
:200B0000BC010020C0010020BA010020BE010020B80100201FB52648264908602648406954
:200B2000012189040843244948610846C069891508432149C86100220121204801F02AFAF1
:200B4000982201211D4801F055FA7D21C9001C480068FFF7CFFA401E1A4908800988491EE1
:200B60000A22514308466421FFF7C4FA84B215480188684641817D21C90001810021818196
:200B800002A802F0FBFC702168460180012141800221C180848002F0BDFC0B48006801212F
:200BA000084309490860012002F0DEFC1FBD0000E2040000C0010020001002400004004802
:200BC000D4010020BC0100200020004010B54148C069202108404009002879D03D48203054
:200BE00080883D4908703B482030808808703B48007800280BD108460078FF2868D1084629
:200C000000783749087001203449087060E033480078012813D130480078002803D02E48AD
:200C20000078012807D12C4800782D49487002202A4908704CE000202849087048E0274848
:200C40000078022813D124480078F02803DA22480078602803DC00202049087038E00320B0
:200C60001E4908701C4800781D49887030E01A4801781A4802780078401C184B1870184875
:200C8000815418460078092822DB00201946087007211348401C01F0D1F81149097A884244
:200CA00013D100200F4908800F49087001200F49087002F0C9F80E480078012808D10020EC
:200CC0000B49087002F0B0FC02E000200749087010BD000000380140C6000020B6000020DE
:200CE00005020020C2000020BD000020B8000020BA00002010B501F02DF872B600F0F8FF72
:200D000034200549C860054800F0CCFF02F08CFF00F0A2FF62B610BD0020024000F80008AC
:200D20002021020C01D010211046020A01D010460839020901D01046091F820801D010468D
:200D4000891E420801D0881E7047081A7047000010B5002819DB1A4A03231B02D21883089E
:200D60009B00D2588307DC0EFF23A3409A438B071B0E8407E40EA3401A43114B0324240237
:200D80001B198408A4001A5118E00E4A03071B0F083B9B089B00D2588307DC0EFF23A340DC
:200DA0009A438B071B0E8407E40EA3401A43054B0407240F083CA408A4001A5110BD000084
:200DC00000E100E01CED00E002E008C8121F08C1002AFAD170477047002001E001C1121F66
:200DE000002AFBD17047000010B5FF202549087004204870032088700020C870224800883B
:200E00000121C9020840002810D0204800880F280ADB1E4800887D21C900884201DD0C463A
:200E200014E01A48048811E000240FE01748008805280ADB154800887D21C900884201DDDF
:200E40000C4603E01148048800E0002410490978614308466421FFF763F984B22012094917
:200E600008714C71084800788406A40E201288710846C4710721401C00F0E0FF0149087273
:200E800010BD0000FC010020C4000020580000208800002010B54369034C234014020C43DC
:200EA0002343436110BD0000E0E0FFFF026907235B029A430A430261704701218906016055
:200EC00000214160C1600161416181618160C161022101627047816804221143816070470E
:200EE0000121C9050140002909D00102090AC943481C0002000A0121044A118004E0000246
:200F0000000A0021014A1180704700009A000020084988420CD1084909690122D20611434F
:200F2000054A116111460969D2039143024A116170470000009000400010024002469068A7
:200F400004231840002801D000207047906803235B029843084390600120F6E700B589B0C5
:200F60006846FFF7AAFF0020049003900590032080060090012080030790002006900220FC
:200F80000890002001900F20000602906946024800F004F809B000BD0090004030B50246E9
:200FA0000023002490680825A84390604D6808682843CD6828430D6928430346124C90683A
:200FC00004252840002801D0002030BD9068A04318439060002300248D69486928438D6806
:200FE00028430346094CD068A0431843D060002300240D6AC86928430346054C1069A043F2
:20100000184310610120E0E700E0F70F0030000F02C0000010B500210022194B9B6B01249E
:2010200024062343164CA363037B002B07D023469B6B0124E4052343114CA36306E0104BB1
:201040009B6B0124E405A3430D4CA3630124A4060368A34202D0E311194302E00F231B04C3
:201060001943084A83881B0584682343046823431943034B9B6B93430B43014CA36310BD7F
:20108000009000401C007F0600B589B06846FFF714FF0120C0030490C000039000200590BA
:2010A00007200006009000200790069002200890002001900F200006029069460248FFF705
:2010C0006DFF09B000BD00000090004000B58FB0324840690121490408433049486108461D
:2010E000C069C90308432D49C8610846006801218906084329490860002001F0B5FC00BF04
:2011000001F038FD0028FBD02548FFF701FF244800F0FAF806A8FFF7D0FE0120C0030A9015
:20112000C000099000200B90072000060690012080030D9000200C9002200E900020079064
:201140000F200006089006A91548FFF727FF00200290002168460175042004900020039038
:2011600002A8FFF757FF01216846017100218171C1710121417101A800F08CF80021084890
:20118000FFF7DCFE40220021054800F067F8012149020348FFF78AFE0FB000BD001002405C
:2011A0000090004000B58BB001A8FFF786FE0120C0030590C000049000200690072000069C
:2011C00001900120800308900020079002200990002002900F200006039001A90748FFF767
:2011E000DDFE012108A8017200218172C172012141720AA800F04EF80BB000BD0090004083
:2012000000B58BB001A8FFF758FE0120C0030590C000049000200690072000060190002088
:201220000890079002200990002002900F200006039001A90848FFF7B1FE012108A8017266
:20124000002181720221C172012141720AA800F021F80BB000BD00000090004010B503463E
:20126000986804242040002801D0002010BD002905D1D8680324A402A043D86007E0D868B2
:201280003724A401A0430C4614432043D8600120ECE7000010B50021002283789B04C47855
:2012A000A40223431943164B1A43164B1B6893430B43144C23600378002B07D023461B68B4
:2012C0000124640523430F4C236006E00D4B1B6801246405A3430B4C23604378002B07D070
:2012E000084B1B68012424032343064C236006E0044B1B6801242403A343024C236010BD09
:20130000000C0C00409000401749026C0123DB041A430264154A1268DB011A43134B1A6027
:201320001A46126B01239B061A43104B1A63104A526802231A430E4B5A601A4652680123EF
:20134000DB031A430A4B5A60026C9B141A43026400BF0A46491E002AFBD1026C03239B04C4
:201360009A43026470470000FF4F0000001002400098004030B50023AF4C23800021AF4A3B
:20138000AF4C2380AF4C2380AF4C2380002046E0431C5B00AD4CE35A4400AC4D2C5BA34294
:2013A00005DDA74B1B885B1CA54C238013E0431C5B00A64CE35A4400A44D2C5BA34205DA4F
:2013C000A04B1B885B1C9F4C238004E09E4B1B885B1C9D4C2380431C5B009C4CE35A934253
:2013E00002D8431C5B00E25A431C5B00974CE35A8B4202D3431C5B00E15A431C5B00934C13
:20140000E35A8D4C24881B198B4C2380431C5B008E4CE35A44008D4D2B53431C98B2092815
:20142000B6DB8A4B5B8A8A4C2488A34205DA844B1B885B1C824C238010E0844B5B8A844C4D
:201440002488A34205DD7F4B1B885B1C7D4C238004E07D4B1B885B1C7B4C23807C4B1B882F
:201460007A4C638223465B8A934201D823465A8A764B5B8A8B4201D3744B598A734B5B8AEC
:201480006D4C24881B196C4C23808B1A714C2380694B1B885B1A9B1A5B031B0C664C2380F8
:2014A0006A4B5C8A6C4B1B880F339C4230DD644B1B88072B10DB694B1B880124A402234313
:2014C000664C238023461B880124E402A343634C23800023624C23605C4B5C8A5E4B1B883B
:2014E00014339C4214DD564B1B88052B10DB5B4B1B880124A4022343584C238023461B88AA
:201500000124E402A343554C23800023544C23604B4B1B88082B10DB504B1B880124A402F0
:2015200023434E4C238023461B880124E402A3434A4C238000234A4C2360424B1B88052B36
:2015400013DB424B5C8A444B1B880D339C420CDC424B1B880124A4022340002B05D03F4B0A
:201560001B88640023433D4C2380374B1B88062B1CDB364B5C8A384B1B885B1D9C4215DCB1
:20158000364B1B880124A4022340002B0ED0334B1B8864002340002B08D1304B1B88641072
:2015A000A3432E4C238000232D4C23602C4B1B682C4CA34210D3294B1B880124E402A343C7
:2015C000264C238023461B880124A402A343234C23800023224C2360234B1B78002B29D1ED
:2015E000224B1B88962B15DA214B1B889A4201D21F4C22801F4B1B88994201D91D4C218094
:201600001A4B1B885B1C194C23800023DB431A4C23800FE00023154C2380164B1B88144C7F
:2016200024881B1B144C23800023124C23805B1E0F4C238030BD00000C000020FFFFFF0014
:201640000E0000201000002012000020E8010020400000200800002030000020C400002035
:2016600014000020A08C000006000020180000201C0000201A0000200A000020F3B583B031
:20168000064620480078401EC5B208E0681E80003058A900705000F05DFB681EC5B2012DF7
:2016A000F4DA04983060002701971748029000250EE0A80034580298844200D802940198D2
:2016C000844200D301943F1900F044FB681CC5B20C4800788542ECDB0199029840180090E4
:2016E0000098874208D3074A1278911E009AB81AFEF700FD044600E000240094204605B0C9
:20170000F0BD000088010020FFFFFF0010B5104840690121890408430D49486148220E211E
:201720000C4800F067FC00F07FF900F0B5FC02F0CBFA07484069012149040843044948619A
:201740004822C914100600F055FC01F063F910BD0010024000040048FEB5052216213048AA
:20176000FFF798FB2E48FFF7B6FB00BF2C4800680421084080080028F8D02949086AFFF769
:20178000AFFB28490860142027490870254801682648FFF773FF2649086005221321204864
:2017A000FFF778FB1E48FFF796FB00BF1C4800680421084080080028F8D01949086AFFF799
:2017C0008FFB1C490860142017490870194801681948FFF753FF1949086015480068FEF7AF
:2017E0006DFE06460F4615480068FEF767FE0446134A144BFEF76EFD32463B46019100903D
:20180000FEF7D0FD104A03C20022104B0E4903C9FEF760FD0446FEF75FFE0D490880FEBDC0
:2018200000900040E40000208801002038010020E0000020DC000020E8000020D8000020D6
:20184000FCA9F1D24D6200404800002000408F405000002010B500221346304903C9FEF7D0
:201860006DFE3BD22E4800882E49098888421ADB2B4909882B4A1288881A0521FEF750FC0E
:201880002949087026490988264A1288881A0521FEF746FCC8B225490870002024490870F0
:2018A0002449087038E01F4909881D4A1288881A0521FEF735FC1E4908701A490988184A0E
:2018C0001288881A0521FEF72BFCC8B219490870002015490870154908701DE000201249F2
:2018E0000870124908700E4909884904490C0D4A128888180521FEF713FC0D490870084939
:2019000009884904490C074A128888180521FEF707FCC8B20749087010BD0000C8000020F4
:2019200052000020A4010020000000200200002001000020030000200948008809498842F5
:2019400006DC09480088102108430749088005E00548008810218843034908807047000037
:2019600050000020FC080000C4000020014602480180006870470000003002400020C04349
:201980000449086000200871401E086101208860704700000030024010B5144880680121D5
:2019A00008431249886012480088FFF7DFFF11480088FFF7DBFF10480088FFF7D7FF0F482F
:2019C0000088FFF7D3FF0E480088FFF7CFFF0D480088FFF7CBFF0C480088FFF7C7FF0B488D
:2019E0000088FFF7C3FF0148006810BD00300240980100209A0100209C0100209E010020C7
:201A0000A0010020A2010020A4010020A601002010B5044840694021084302494861FFF766
:201A2000ADFF10BD0010024002200149886170470004004870B50C4801880020FEF770FB01
:201A40000546094801880948FEF76AFB044608490988614308467D21C900FEF74BFB441999
:201A600020040449C86070BD500000204874BB00580000200098004010B500205D49088056
:201A800000F06AFA5C4908605C49086008460068FEF73AFE5A4A03C2594903C9FEF71CFD10
:201AA0005849088002F00AF9142001F073FF002000F052FA5049086050490860084600685D
:201AC000FEF722FE4E4A03C24D4903C9FEF704FD4D49088002F0F8F8022001F05BFF0020AF
:201AE00000F03AFA444908604449086008460068FEF70AFE424A03C2414903C9FEF7ECFCA1
:201B0000424908803F4800883F490988884207DB3C4800883C490988401A3D49088006E06E
:201B20003948008837490988401A394908803648008836490988884207DB334800883349E6
:201B40000988401A3349088006E0304800882E490988401A2F4908802D4800881E281ADB16
:201B60002C48008814280BDC2B4800880421884329490880084600880821884326490880A0
:201B800024480088642833DB2348008808210843214908802CE01E4800880F2828DC1D48C4
:201BA00000880F2824DC1D4801881D480088C830814211DD184800880421084316490880A3
:201BC000084600880221884313490880084600884008400008800BE00F48008804218843BD
:201BE0000D49088008460088082188430A49088010BD00009400002024000020200000205D
:201C0000380000208A0000208C0000208E0000209000002092000020C400002040000020C2
:201C20003000002030B503460C4601250948006901210843074908611C800B20000400F013
:201C400015F80546034800694008400001490861284630BD002002400348006980210843E0
:201C6000014908617047000000200240014600E0491E0B48C068C007C00F002801D00029D7
:201C8000F6D10748C06814221040002801D000207047002901D10220FAE70120F8E70000B2
:201CA0000020024010B5034601240B200004FFF7DDFF0446012C17D10C4800690221084304
:201CC0000A49086108464361006940210843074908610B200004FFF7C9FF0446034800699D
:201CE0000221884301490861204610BD002002400548006980210840002804D0034802497D
:201D000048600348486070470020024023016745AB89EFCD30B503460C4601250C48406AAB
:201D2000012108430A4948620846006901210843074908611C600B200004FFF797FF0546DA
:201D4000034800694008400001490861284630BD002002400148024908607047AAAA0000D0
:201D600000300040FFB587B005460E461446B54227DBA54225DAB44223DDA81BFEF78AFBFD
:201D800005910490A01B06902A480088FEF796FB03910290059B049AFEF79CFA059104902F
:201DA0000698FEF78BFB02460B460191009005990498FEF7F7FA03910290FEF78DFB07463F
:201DC00034E0A54231DBB5422FDDB4422DDD0A98A0422ADD281BFEF75DFB059104900A9812
:201DE000001B069014490988124A1288881AFEF751FB03910290059B049AFEF76BFA059117
:201E000004900698FEF75AFB02460B460191009005990498FEF7C6FA03910290FEF75CFB2A
:201E20000746044800883F1800E00027B8B20BB0F0BD00009C010020A001002010B50246C6
:201E40000B460024002100BF04E0505C0019C4B2481CC1B29942F8DBFF20001B401CC0B281
:201E600010BD0000F0B585B0102211463248FFF711F83148FFF72FF800BF2F480068042160
:201E8000084080080028F8D02B49086AFFF728F82A4908600846006829490968884224D351
:201EA00028480068FEF70AFB04460022264BFEF779FA0391029021490968214A1268881A83
:201EC000FEF7FCFA06460022204BFEF703FA044600221F4BFEF766FA01910090039B029AC5
:201EE000FEF744F91B4A03C223E015490968134A1268881AFEF7E2FA04460022134BFEF7AB
:201F0000E9F906460022124BFEF74CFA039102900C480068FEF7D2FA044600220A4BFEF780
:201F200041FA01910090039B029AFEF7C4F9094A03C205B0F0BD000000900040D00000201E
:201F40009001002094010020000059400000A04000006041C800002070B504460025E1B2F2
:201F600005220B48FEF796FF0948FEF7B4FF00BF074800680421084080080028F8D00448BD
:201F8000056A2846FEF7ACFF0546284670BD0000009000407CB5034600201C6A00945C6A94
:201FA000019420E0CC07E40F002C19D0C410A4006D462C594507EE0E0725B540AC43C510D4
:201FC000AD006E467451C410A4006D462C594507EE0E1546B5402C43C510AD006E46745129
:201FE000441CE0B249100029DCD1009C1C62019D5D627CBDF0B585B0002300240025039532
:202000000495C0251540AD090295302515402D0901950C2515400095009D0C2D03D1858858
:202020000D43858005E0009D082D02D185888D43858016E0CD07ED0F002D0FD05E00032587
:20204000B5402C435F00029DBD40039E2E4303965F00019DBD40049E2E4304965D1CEBB2B9
:2020600049100029E6D10568A543039E35430560C568A543049E3543C56005B0F0BD00009E
:202080000420034988610020024908707047000000040048B6010020042003490881012010
:2020A000024908707047000020040048B601002000B505480078002802D1FFF7EDFF01E02B
:2020C000FFF7DEFF00BD0000B601002001F05AF96421FD480068FEF70DF80446601EFB491D
:2020E000884200D90CE0601EF94948610321081FFEF72EFE0020F64988610720086100BFE5
:20210000FFF704FB01F0AEFAFEF7E0FF00F030FCFEF700FDFFF77CFC00F0D0FD00F06EFEC8
:2021200000F052FD01F04AFC00F0B6FBFFF79AFE0020E8490860E8490880E8480168406847
:20214000E74A1160506062B672E2FFF703FEFFF757F8FFF701FBFFF7EFFBE2480088642875
:202160001ADB0020FFF7F8FEDF4908600620DF490870DD480168DE48FFF780FADD49086056
:2021800008460068FEF7C0FADB4A03C2DA4903C9FEF7A2F9D9490880D9480078062801DC23
:2021A00000F05AFAD7480068002826D1D6480068401CD5490860D5480388D5480288D54861
:2021C0000188CE480088FFF7CDFDD3490880CE480068012811D90020CB490860FFF7CAF88F
:2021E000CE480078012851D1CD480078012805DBCB480078401ECA490870E8E00020C74904
:202200000870C54800886428F7DCBC4800880128F3DBC44800881128EFDCC3480088C021C3
:2022200008400028E9D1C14800884010C04909884018B24909888842DFDBB74800884B2897
:2022400021DDAE480088BA490988401AB949088008460088142816DB098808461438C10F8C
:202260000918C905090EB44A1170104600781F2802DD1E2011460870AF4800784000AF4931
:20228000085CAF49087001F08FF9A0E09248008808281CDBA04800886428AEDAA3480088F1
:2022A0004010A349098840189449098888420DDB92480088012809DBA2480088142805DCDB
:2022C00099480088002801D101F06EF97FE09E480078082806DA00221346804903C9FEF771
:2022E00019F949D298480078082818DB974800689749884213D88C4800880121C902884346
:20230000894908800846008801218902884386490880084600888F490840834908807E48AE
:202320000088FF212D31884251DA814800887F490988401871490988884248DB6F48008829
:20234000012844DB7F4800880F2840DC764800880121C9020840002839D17348008849104A
:202360000840002833D170480088C021084000282DD101F019F92AE0674800881E2826DAD0
:202380006A48008840106A49098840185B49098888421CDB59480088012818DB69480088A3
:2023A0000A2814DC604800880121C902084000280DD15D48008849100840002807D15A4820
:2023C0000088C0210840002801D101F0EDF84B48008850490988884212DB4D4800884D49CD
:2023E000098888420CDD49480388494802884948018842480088FFF7B5FC4749088002E095
:2024000000204549088000F0EDF900F0C1FF424800885149884214DB43480088FF21013136
:202420000843414908804D4800687D21C90088420ED33D4800880121490208433A49088060
:2024400006E039480088FF21013188433649088035480088012149020840002817D02E482A
:2024600000882D4908803E4800683C4909683D4A891888420BD32C480088012149028843EE
:202480002949088000203649086034490860224800887D21C900884202DD08461E49088017
:2024A0001D48008830490880FFF7C4FA2E48008800F0B8FA1C48008820210840002855D117
:2024C00000F006F957E00000D4010020FFFFFF0000E000E0AC000020A8000020C8000020A8
:2024E000A00000209400002024000020880100201002002020000020380000204000002051
:202500000100002064000020780000203400002032000020300000205600002006000020EC
:202520000700002008000020C4000020B00100209801002086000020840000200E3D000841
:20254000880000200A00002000000020B000002000093D003FFF0000DC0500006C000020C8
:2025600068000020E02E0000580000200020314908803149088031490988314A1278514385
:2025800008466421FDF7CCFD2E49088008460088FF21F53188420CDB2B4800880421084077
:2025A000002824D12848008802210843264908801DE0244800882549098888420CDB224896
:2025C0000088012108432049088008460088022188431D4908800AE01B48008802218843A0
:2025E000194908800846008840084000088018480078882803D0164800788B280BD1FFF755
:20260000CBF91449086001F06FFA00F057FB00200F49087008E00E480078892804D1002049
:202620000B49087001F026FB01F096F8FFF740FD8BE500008E0100208C01002056000020C8
:2026400088000020B4000020C4000020A2010020BC000020A801002010B5174800881E28C0
:202660000BDA16480078401C1449087008460078032805DB0320087002E000200F49087030
:202680000F4800880F49884214DB0C480078032806DA0D4801880D480088C830814209DD17
:2026A00009480088012805DBFEF758FCFFF7E4F9FEF7EAFC10BD0000580000208900002053
:2026C00094000020B80B0000400000203000002010B5374800F072FA364908800846008856
:2026E0003549884202D1002032490880314800883249884206DB324800882021084330496E
:20270000088053E02F480088002805D02848801E00F054FA2B4908802A4800882649884287
:2027200002D1002027490880274922480088FDF7F7FC012808DB23480088A82804DD23484A
:202740000088401D21490880214922480068FDF7D1FC2149086008460068032826D315489C
:20276000008809884018134908801B4800681849484318490968081A1649086014491748D6
:202780000068FDF7B7FC164908600E480088098840180C490880124800680D4948430F49C4
:2027A0000968081A0D49086001F064FA10BD000002F400088E010020FFFF000018AB00003E
:2027C000C40000208C0100203822000056000020407E0500700000207C0000207400002015
:2027E0008000002070B5FEF7DDFCFFF73BFB00221346244903C9FDF7A1FE06D8214903C9BF
:20280000FDF76AFE2049088009E01E4903C9FDF763FE80B20121C90308431B4908801B4840
:202820000068401C19490860084600684B210901884226D9164813490CC803C9FDF77EFE4B
:202840000BD813480F490CC803C9FDF734FD0446FDF742FE0F4908800AE00A480C490CC85A
:2028600003C9FDF728FD0446FDF736FE09490880002006490860034801684068044A116035
:20288000506070BDC800002052000020AC000020A0000020A800002000B5174800F091F91F
:2028A00016490860084600780968FF2212041140090A084311490860084600681049401A09
:2028C0000E4908600C48001D00F07BF90D4908600948083000F075F903460A48007809495A
:2028E0000968FF2212041140090A08431906090A08430449086000BD34FCFF1F940100208F
:20290000B36A0000900100208178002925D01749032212028918027892109200895802788F
:202920009207D30EFF229A40914342789207120E03789B07DB0E9A4011430C4A03231B020E
:20294000D21803789B109B00D1500178CA06D20E01219140054A116007E00178CA06D20EBF
:2029600001219140014A80321160704700E100E000B587B02248C069012189070843204999
:20298000C861084640690321490408431C494861C022FF21A1310920C006FFF72BFBC0228C
:2029A00010210920C006FFF725FB0221684641750021817501750020069005A800F0E8FB97
:2029C000182168468174002001900021684601744174012003900020029001A800F0B6FBC1
:2029E000084840680121C90308430649486008460068012108430349086007B000BD000064
:202A000000100240009800400120C0020921C906886170470120C0020149088170470000A3
:202A20002000004870B5044600BF0C490988491E614308460A490968FDF75CFB0646074916
:202A40000988491E0A22514308466421FDF768FB3518A8B20349486370BD0000BC010020EC
:202A6000C0010020002000400449096B0722920591430143014A11637047000000100240B4
:202A800030B5002100230022344C64680C252C402146334C648880252C40002C01D0314AA7
:202AA00000E0314A002906D0042906D0082907D00C290AD105E002600AE02C4C046007E0AD
:202AC00000BF7D246403046000BF274C046000BF00BF224C6468F0252C4021460909244C13
:202AE000635C0468DC4044601C4C646807252D022C402146090A1E4C635C4468DC408460A1
:202B0000164C246B10252C40102C01D0C26001E00468C460114C246BA407A40F002C02D13A
:202B20008468046118E00D4C246BA407A40F012C02D1046804610FE0084C246BA407A40F05
:202B4000022C02D1A403046106E0044C246BA407A40F032C00D1026130BD000000100240A3
:202B600000F8FF1F00366E0100093D0000127A00C401002008B5002200920020002100BF72
:202B80000D4A12680123DB061A401146009A521C009205231B03009A9A4201D00029EFD09F
:202BA000054A12680123DB061A40002A01D0012000E0002008BD00000010024001460888E3
:202BC000704701460868704730B5002300BF14E099000B4A8818FFF7F4FF0546002408E047
:202BE000E1002846C84099000919064A5054601CC4B2042CF4DB581CC3B2032BE8DB30BD17
:202C000000F800082802002010B52148FFF7D6FF204908801E48801CFFF7D0FF1E490880CA
:202C20001B48001DFFF7CAFF1C4908801848801DFFF7C4FF1A49088015480830FFF7BEFF7F
:202C40001849088012480A30FFF7B8FF164908800F480C30FFF7B2FF144908800C480E30B2
:202C6000FFF7ACFF1249088009481030FFF7A9FF10490860FEF790FE0F4908600D480068E0
:202C80000968884201D1012400E00024204610BD20F00008980100209A0100209C01002082
:202CA0009E010020A0010020A2010020A4010020A6010020A8010020AC01002010B53E4864
:202CC000FFF77CFF3D4908803B48801CFFF776FF3B4908803848001DFFF770FF39490880D3
:202CE0003548801DFFF76AFF3749088032480830FFF764FF354908802F480A30FFF75EFF3E
:202D0000334908802C480C30FFF758FF3149088029480E30FFF752FF2F490880264810300C
:202D2000FFF74FFF2D490860FEF736FE2C4908602A4800680968884209D0FFF765FF0028FB
:202D400002D000F0D1FE08E000F0B8FA05E0FFF75BFF002801D100F0C7FE18480088214922
:202D600008801748008820490880174800881F4908801D4800881B490988401A1C490880F3
:202D80000846008880101749098840181949088017480088801013490988884208DA14482E
:202DA000008880100F490988081A1349088002E001201149088010BD00F0000898010020A9
:202DC0009A0100209C0100209E010020A0010020A2010020A4010020A6010020A8010020E3
:202DE000AC010020300000203200002034000020B0010020B2010020B401002000B50E488C
:202E0000FFF7DCFE0D4908800B48801CFFF7D6FE0B490880084600880A49884202D1002089
:202E200007490880054800880649884202D100200249088000BD000000F400088C010020A0
:202E40008E010020FFFF000070B5AF488078882872D00CDC852824D004DC782814D0842826
:202E600012D112E0862828D08728F9D165E0942876D004DC892874D08A28F1D1BAE0952877
:202E800070D0A028ECD12BE13BE100239F4802889F480188842000F097F901209D4908709E
:202EA0002FE100239C4802889C480188852000F08BF901209749087023E1994800880121E3
:202EC000C9020840002810D09648008814280ADB944800887D21C900884201DD0D4614E096
:202EE0009048058811E000250FE08E48008805280ADB8C4800887D21C900884201DD0D463A
:202F000003E08848058800E0002587490978694308466421FDF704F985B284480078643894
:202F20000006040C002322462946862000F04CF9012078490870E4E023E08B207C4908709D
:202F40007148C078000270490979401884B2642C09DBFF202D30844205DC7648048005E0F7
:202F600053E031E094E0C8207249088000231A4670480188872000F027F9012065490870AC
:202F8000BFE088206A4908705F48C07800025E4909794018684908800846008800F00CFC56
:202FA0005F48008804210840002801D0002401E0FF24013400231A462146882000F004F9A0
:202FC0000120544908709CE08920594908704E48C07800024C490979401884B257480480E4
:202FE00000231A462146892000F0EEF801204949087086E000231A46504801888A2000F099
:20300000E3F80120434908707BE03F48C078012801D14B4908703C480179C078401E4200B9
:203020008018484A115438484179C078401E42008018401C434A115433488179C078401EFE
:2030400042008018801C3F4A11542F48C07803280AD13B480078012806D1FDF74BFEFFF729
:20306000B3FD0020364908702748C0783649C870254800790871244840794871224880798B
:203080008871942000F0BEF801202249087038E01D48C0782C49C8701B48C078401E41003D
:2030A00040182849085C284908711748C078401E41004018401C2349085C234948711248C0
:2030C000C078401E41004018801C1E49085C1E498871952000F096F801200E49087010E0E7
:2030E0000948C078002802D100F0C4F805E00648C078012801D100F099F8012005490870D2
:2031000000BF00BF70BD0000050200203000002040000020BA0000203400002032000020AD
:20312000C4000020580000208800002004000020BC000020A2010020C00000208E01002039
:20314000C700002028020020FC0100200021027B002A01D020221143427B002A02D0FF2218
:2031600001321143436802681A4383681A43837B1B041A431143044A5268044B1A400A4342
:20318000014B5A60704700000098004004FE00FF00218278002A02D0FF2201321143027860
:2031A000D20043785B001A4383881A430A4391B2034A1268034B1A400A43014B1A60704799
:2031C0000098004081FCFFFFF0B507460C4615461E46FF200A490870084647702012887080
:2031E000CC70281208714D7130128871CE7107210348401CFEF722FE01490872F0BD000053
:20320000FC01002010B50446FF20074908700846447084700020C87107210348401CFEF788
:203220000DFE0149087210BDFC01002000B5FF200E490870A02048700D48007888700C48A1
:203240004078C8700A48807808710948C078487107480079887106484079C8710721034805
:20326000401CFEF7EBFD0149087200BDFC010020523D000800B5FF200E490870A0204870C5
:203280000D48007888700C484078C8700A48807808710948C0784871074800798871064811
:2032A0004079C87107210348401CFEF7C7FD0149087200BDFC0100204C3D0008284800886D
:2032C000002804D0264800882649884202DB73202349088024480088002804D0224800887D
:2032E0002049884208DB1E480088FF3005301E490880C8201D4908801D480088002804D0B8
:203300001B4800881749884209DB17480088FF30913017490880FF20F5301649088016486C
:203320000088FF21F531884202DDC8201249088012480088142803DB104800883C2802DD2C
:2033400019200E4908800E480088142803DB0C480088502802DD3220094908807047000047
:2033600098010020FA0F00009A0100209C0100209E010020A0010020A2010020A40100200B
:20338000A601002010B5FDF715FBFDF7CDFA10BD10B5FEF75FFA574800780C2805DD0C20A9
:2033A00054490870002054490870544800780F2805DD0F20514908700020514908704D488E
:2033C0000078002824DD4B4800780C281BDA49490978491C49004B4A515A464A12785200AB
:2033E000484B9A5A891A444A1278514308460521FCF796FE3F4909784900424A515A40181B
:203400004149088028E03F48008B3F49088023E03A4800780F281BDA38490978491C490097
:203420003A4A515A354A12785200384B9A5A891A334A1278514308460521FCF771FE2F49FF
:2034400009784900314A515A40182F49088003E02E48C08B2C4908802D480488142C08D961
:2034600029480088444364212046FCF743FE28490880224800780B281CDB25480088FF2193
:203480005531884235DB22480088FF217D3188422FDA00BF1E490988FF229132511ACA0069
:2034A000501A0A21FCF73CFE19490988441818490C801EE00F4800780A281ADB1448008836
:2034C000FF213C31884214DB11480088FF217D3188420EDA0E490988FF229B32511ACA003A
:2034E000501A0A21FCF71CFE0949098840180849088010BD000000200200002001000020E6
:2035000003000020D43C000804000020EE3C00085600002010B500220021114B1B6A114C5E
:2035200023400F4C236223461B6A99B223469B699AB20C4B6F3B1A400A4B9B1E1A40038808
:203540001A43084B5B1E1940C38819434388194323469A61838863632346196210BD000035
:2035600000200040FEFF00000349096A490849000143014A11627047002000400021084A09
:20358000126891B2074A114082881143044A11604288034BDA6202889A6201225A61704740
:2035A00000200040FFFC000018490988184A1288914216DB15490988154A1288891A88B239
:2035C000032822DB11490988124A1180124909880918124A1180124909880918114A1180F8
:2035E00013E00B490988094A1288891A88B207490988084A118008490988091A074A11807E
:2036000007490988091A074A118070470C00002098010020300000209A01002032000020CB
:203620009E0100203400002000B5002008490870012008490870002007490880074908702F
:203640000921074800F088F900200249087000BDB7000020B9000020BE000020B80000207A
:20366000FC01002000B587B018216846FCF773FD37484069012149040843354948610846A0
:20368000806901218903084331498861982289140920C006FEF7AEFC9822012149030920AF
:2036A000C006FEF7A7FC0022012109030920C006FEF770FC0022012149030920C006FEF798
:2036C00069FC00BF2248C0680121890308432049C8600846C0680121890388431C49C8602E
:2036E00000BF4B20C0010090002001900290039005900C2004906946164800F0BFF800214F
:20370000144800F041F90021124800F01DF9114800680121490708430E4908601B2168467B
:203720000176002141760121817606A8FFF7ECF808480068202108430649086020200862F4
:2037400008460068012108430249086007B000BD001002400038014010B514480078002893
:2037600010D1134800887D21C90088421DDB00200F49088001200D490870FDF735FBFFF753
:2037800053FF12E00948007801280BD1094800884E280ADBFDF728FB002006490880FFF7DF
:2037A00043FF02E000200149087010BDBD000020C2000020BE00002000280DD12249098897
:2037C000224A118022490988224A11800021224A1180224A116036E064281ADBFF21F5311B
:2037E000884216DA1E490880174909881D4A118017490988174A11800021174A1180174AE0
:203800001160194A1170194A11806421184A117019E0FF21F531884215DB164908800A49C4
:203820000988154A11800A4909880A4A11800021094A1180094A11600B4A11700B4A1180B9
:2038400064210B4A11707047400000209801002052000020A40100208C01002074000020C5
:203860009C0100209A010020840000208600002088000020A00100209E010020F0B587B082
:2038800004460D46002600270020069020684008400020606068032109038843A9680843D9
:2038A0006060E96868680843296908432168234A114008432060A068032109028843696919
:2038C0000843A06001A8FFF7DBF81D48844201D1059F00E0039F20680121C9030840002822
:2038E0000AD078002968FCF705FC064678002968FCF700FC069109E038462968FCF7FAFB36
:20390000064638462968FCF7F5FB0691286841080698814200D8761C20680121C903084070
:20392000002808D03007400F0690304605490840069908430646A68107B0F0BDF3E9FFFFC4
:2039400000380140F0FF0000826807235B069A430A4382607047000010B5024600200DE0AD
:2039600000BF084BDB6980242340DB09002BF8D0135C044C20342381431CD8B28842EFDBDF
:2039800010BD0000003801408268D200D2080A438260704770B5054608E0FEF7DBF9002420
:2039A00001E0601C84B204488442FADB2846691ECDB20028F1D170BDB80B000000212C4AA8
:2039C00011602C4A11602C492C4A116000212C4A11602C4A11602C4A118001212B4A117025
:2039E00000212B4A11702B4A11702B4A11702B4A11702B4A1170002006E02A49098882004C
:203A0000294B9950411C88B20528F6DD002006E0244909884200254B9952411C88B20A2848
:203A2000F6DB0021224A1160224A1180491E224A11800021214A1180214A11600121214AD0
:203A400011700B21204A11700021204A1180204A117064211F4A117000211F4A11801F4AD4
:203A6000118064211E4A118000211E4A116070477000002074000020701700006400002057
:203A8000680000206C000020C4000020BE0100206000002061000020620000206300002049
:203AA000BD0000209801002010020020E8010020140000201A0000201C0000201800002053
:203AC000780000200600002007000020860000208400002088000020940000209A000020A1
:203AE00004000020B000002010B5FEF733F972B6FEF7FEF834203B49C8603B48FEF7D2F897
:203B00003A4801883848FEF78DF8394801883648801CFEF787F8374801883348001DFEF773
:203B200081F8354801883048801DFEF77BF8334801882D480830FEF775F8314801882A4802
:203B40000A30FEF76FF82F48018827480C30FEF769F82D48018824480E30FEF763F82B4863
:203B6000016821481030FEF7D5F8FEF7F3F81F4801881D482030FEF755F81D4801881A485A
:203B80002230FEF74FF81B48018817482430FEF749F81948018814482630FEF743F8174897
:203BA000018811482830FEF73DF8154801880E482A30FEF737F8134801880B482C30FEF75F
:203BC00031F81148018808482E30FEF72BF80F48016805483030FEF79DF8FEF73DF862B6DB
:203BE00010BD00000020024000F00008980100209A0100209C0100209E010020A0010020ED
:203C0000A2010020A4010020A6010020A801002070B504460D46FEF76BF829462046FEF7A8
:203C200079F8FEF719F870BD70B5002400BF1AE0A0000E49095CA000401C0C4A105C0002C2
:203C40000918A000801C105C00040918A000C01C105C00060D18A100054A88182946FFF76E
:203C6000D7FF601CC4B2032CE2DB70BD2802002000F8000810B5FEF76DF872B6FEF738F8AD
:203C800034200A49C8600A48FEF70CF8094801880748FDF7C7FF084801880548801CFDF771
:203CA000C1FFFDF7D9FF62B610BD00000020024000F400088C0100208E0100200820014967
:203CC000886170470004004808200149088170472004004864006400640064006400640082
:203CE00064006400640064006400640064006400640064006400640069006E0078007D0048
:203D000082009B00AF00B400B900BE00C80064006400640064006400640064006400640060
:203D2000640064006400640064006400640064006400640064006400640064006400640043
:203D4000640064006400640064006400313030333144473030373330783D000800000020B4
:203D6000E8010000B00600089C3D0008E801002050040000D80D000801E80C4BF3057E04B7
:203D80000C4B1299520401402D01020304041506070809AC366E011829140000FFFFFFFF7A
:00000001FF
